:1000000027C1000077C500004AC500001DC50000DB
:10001000F0C40000C3C4000096C4000069C400001E
:100020003CC4000045C1000043C1000041C10000C4
:100030003FC100003DC100003BC1000039C10000CC
:1000400037C1000035C1000033C1000031C10000DC
:100050002FC100002DC100002BC10000D4C300003F
:1000600027C1000052C3000027C3000021C10000C7
:100070001FC100001DC100001BC1000019C100000C
:1000800017C1000015C1000013C1000011C100001C
:100090000FC100000DC100000BC1000009C100002C
:1000A00007C1000005C1000003C1000001C100003C
:1000B000FFC00000FDC00000FBC00000F9C0000050
:1000C000F7C00000F5C00000F3C00000F1C0000060
:1000D000EFC00000EDC00000EBC00000E9C0000070
:1000E000E7C000007E028102700274027A02B80248
:1000F000850289028F02930297029D02A102A50246
:10010000B802AB02AF02B302C409C909CE09D809CB
:10011000E2095B0AEC09F409FC09060A100A1A0A4A
:10012000290A330A5B0A3D0A470A510A00002100E6
:10013000240027002A002D003000330001010000B8
:10014000040107010A0100002200250028002B00FD
:100150002E003100340002010000050108010B01EE
:10016000000020002300260029002C002F00320070
:100170000001000003010601090105050505070549
:1001800008080808020202020A0A08080404040413
:10019000010101010101010103030303030303033F
:1001A000040707070C0C0C0C0C0C0C0C02020202CE
:1001B00006060606060606060B0B0B0B0B0B0B0BB7
:1001C0000102102020080810204010204080020169
:1001D000020108040201010204081020408080404E
:1001E000201008040201800402018040201008044D
:1001F00002010804020101020408102040800102EB
:1002000004081020408000000A0B02090C0D0E08A3
:1002100007030401000000000000000000000000CF
:1002200000000000000000000000000000000000CE
:10023000000012111000000000000000000000008B
:10024000000000000000000000000000120C080C7C
:1002500011241FBECFEFD1E2DEBFCDBF00E00CBF47
:1002600023E0A2E6B2E001C01D92AA3FB207E1F787
:1002700012E0A0E0B2E0E4E9F3E200E00BBF02C06C
:1002800007900D92A236B107D9F711E0C7E2D1E08D
:1002900000E006C021970109802FFE010E948C0F0B
:1002A000C632D10780E00807A9F766D50C94B911CA
:1002B000A7CE089580E090E00895FC01538D448D11
:1002C000252F30E0842F90E0821B930B541710F001
:1002D000CF96089501970895FC01918D828D98170E
:1002E00061F0828DDF01A80FB11D5D968C91928D1A
:1002F0009F5F9F73928F90E008958FEF9FEF089517
:10030000FC01918D828D981731F0828DE80FF11DDF
:10031000858D90E008958FEF9FEF0895FC01918DFA
:10032000228D892F90E0805C9F4F821B91098F73F3
:10033000992708958AE792E0F1DF21E0892B09F4FB
:1003400020E0822F0895FC01848DDF01A80FB11DEC
:10035000A35ABF4F2C91848D90E001968F739927FB
:10036000848FA689B7892C93A089B1898C918064E8
:100370008C93938D848D981306C00288F389E02DA9
:1003800080818F7D80830895EF92FF920F931F935A
:10039000CF93DF93EC0181E0888F9B8D8C8D981338
:1003A00005C0E889F989808185FD23C0F62E0B8D73
:1003B00010E00F5F1F4F0F731127E02E8C8DE81296
:1003C0000BC00FB607FCFACFE889F989808185FF59
:1003D000F5CFCE01B8DFF2CF8B8DFE01E80FF11D16
:1003E000E35AFF4FF0820B8FEA89FB89808180629C
:1003F00007C0EE89FF896083E889F989808180647C
:10040000808381E090E0DF91CF911F910F91FF9069
:10041000EF900895CF93DF93EC01888D8823C1F08E
:10042000EA89FB89808185FD05C0A889B9898C91FD
:1004300086FD0EC00FB607FCF5CF808185FFF2CF99
:10044000A889B9898C9185FFEDCFCE017CDFE8CFFB
:10045000DF91CF91089580E090E0892B19F06ADF59
:10046000811125C080E090E0892B41F080E090E090
:10047000892B21F00E94000081111CC080E090E0D7
:10048000892B41F080E090E0892B21F00E94000050
:10049000811113C080E090E0892BA1F080E090E012
:1004A000892B81F00E94000081110AC008950E94EA
:1004B0000000D8CF0E940000E1CF0E940000EACFE8
:1004C0000C940000089590E0FC013197E231F105B1
:1004D00008F04EC08827EE58FF4F8F4F0C948C0FBA
:1004E000809180008F7703C0809180008F7D809302
:1004F0008000089580918000877FF9CF84B58F7741
:1005000002C084B58F7D84BD08958091B0008F773F
:1005100003C08091B0008F7D8093B00008958091DA
:1005200090008F7707C0809190008F7D03C08091ED
:100530009000877F8093900008958091A0008F772E
:1005400007C08091A0008F7D03C08091A000877FAD
:100550008093A0000895809120018F7707C080913B
:1005600020018F7D03C080912001877F809320012F
:100570000895CF93DF93282F30E0F901EA5FFD4F14
:100580008491F901E054FE4FD491F901E658FE4FF1
:10059000C491CC2389F0811196DFEC2FF0E0EE0FAF
:1005A000FF1FE05AFE4FA591B491EC91ED2381E03D
:1005B00090E021F480E002C080E090E0DF91CF91F4
:1005C00008951F93CF93DF93282F30E0F901EA5F5E
:1005D000FD4F8491F901E054FE4FD491F901E658A2
:1005E000FE4FC491CC23C1F0162F81116CDFEC2F8C
:1005F000F0E0EE0FFF1FEA5BFE4FA591B4918FB7BD
:10060000F894111105C09C91ED2FE095E92302C0EB
:10061000EC91ED2BEC938FBFDF91CF911F9108955B
:100620000895CF93DF9382E0A4DFEC018091620212
:10063000811118C0C130D105A9F483E09ADF9C0173
:1006400090916C022115310529F4992359F01092EB
:100650006C0208C02130310529F4911103C081E0FA
:1006600080936C02C093620280916C0220E030E0C3
:1006700040E85FE381110BC060916E0270916F02E0
:1006800080917002909171020E948B0E0AC060915D
:100690006E0270916F0280917002909171020E94BF
:1006A0008A0E60936E0270936F0280937002909333
:1006B0007102DF91CF9108951F920F920FB60F92A2
:1006C00011240BB60F922F933F934F935F936F9329
:1006D0007F938F939F93AF93BF93EF93FF938AE79B
:1006E00092E031DEFF91EF91BF91AF919F918F9199
:1006F0007F916F915F914F913F912F910F900BBE22
:100700000F900FBE0F901F9018951F920F920FB66B
:100710000F9211240BB60F922F938F939F93EF9309
:10072000FF93E0918A02F0918B028081E091900228
:10073000F091910282FD12C09081809193028F5FAF
:100740008F7320919402821751F0E0919302F0E0B0
:10075000E658FD4F958F8093930201C08081FF91F1
:10076000EF919F918F912F910F900BBE0F900FBE25
:100770000F901F901895CF93DF9390E0FC01E05409
:10078000FE4F2491FC01E658FE4F8491882361F1CD
:1007900090E0880F991FFC01E45DFE4FC591D49154
:1007A000FC01EA5BFE4FA591B491611109C09FB7AE
:1007B000F8948881209582238883EC912E230BC0A6
:1007C000623061F49FB7F8943881822F809583233B
:1007D0008883EC912E2B2C939FBF06C08FB7F89483
:1007E000E8812E2B28838FBFDF91CF9108952FB7FB
:1007F000F894609168027091690280916A02909108
:100800006B022FBF08951F920F920FB60F92112403
:100810002F933F938F939F93AF93BF9380916802E1
:1008200090916902A0916A02B0916B0230916702C7
:1008300023E0230F2D3720F40196A11DB11D05C023
:1008400026E8230F0296A11DB11D20936702809315
:10085000680290936902A0936A02B0936B02809140
:10086000630290916402A0916502B09166020196C4
:10087000A11DB11D8093630290936402A093650251
:10088000B0936602BF91AF919F918F913F912F914D
:100890000F900FBE0F901F9018951F920F920FB6DA
:1008A0000F9211240BB60F922F933F934F935F93A8
:1008B0006F937F938F939F93AF93BF93EF93FF9328
:1008C000E0910E02F0910F021995FF91EF91BF9107
:1008D000AF919F918F917F916F915F914F913F91D8
:1008E0002F910F900BBE0F900FBE0F901F90189579
:1008F0001F920F920FB60F9211240BB60F922F93E7
:100900003F934F935F936F937F938F939F93AF9397
:10091000BF93EF93FF93E0910C02F0910D021995B4
:10092000FF91EF91BF91AF919F918F917F916F91C7
:100930005F914F913F912F910F900BBE0F900FBE83
:100940000F901F9018951F920F920FB60F921124BF
:100950000BB60F922F933F934F935F936F937F93B9
:100960008F939F93AF93BF93EF93FF93E091020216
:10097000F09103021995FF91EF91BF91AF919F9173
:100980008F917F916F915F914F913F912F910F9038
:100990000BBE0F900FBE0F901F9018951F920F92D5
:1009A0000FB60F9211240BB60F922F933F934F93D4
:1009B0005F936F937F938F939F93AF93BF93EF93C7
:1009C000FF93E0910002F09101021995FF91EF91E0
:1009D000BF91AF919F918F917F916F915F914F9157
:1009E0003F912F910F900BBE0F900FBE0F901F9055
:1009F00018951F920F920FB60F9211240BB60F92FB
:100A00002F933F934F935F936F937F938F939F9316
:100A1000AF93BF93EF93FF93E0910A02F0910B0223
:100A20001995FF91EF91BF91AF919F918F917F9118
:100A30006F915F914F913F912F910F900BBE0F904F
:100A40000FBE0F901F9018951F920F920FB60F9226
:100A500011240BB60F922F933F934F935F936F9395
:100A60007F938F939F93AF93BF93EF93FF93E09107
:100A70000802F09109021995FF91EF91BF91AF9192
:100A80009F918F917F916F915F914F913F912F91A6
:100A90000F900BBE0F900FBE0F901F9018951F92D6
:100AA0000F920FB60F9211240BB60F922F933F9314
:100AB0004F935F936F937F938F939F93AF93BF9366
:100AC000EF93FF93E0910602F09107021995FF91D1
:100AD000EF91BF91AF919F918F917F916F915F91B6
:100AE0004F913F912F910F900BBE0F900FBE0F9023
:100AF0001F9018951F920F920FB60F9211240BB6EC
:100B00000F922F933F934F935F936F937F938F93A6
:100B10009F93AF93BF93EF93FF93E0910402F09103
:100B200005021995FF91EF91BF91AF919F918F9120
:100B30007F916F915F914F913F912F910F900BBEDD
:100B40000F900FBE0F901F901895CF92DF92EF92EB
:100B5000FF920F931F93CF93DF936C017A018B0168
:100B6000C0E0D0E0CE15DF0589F0D8016D918D0190
:100B7000D601ED91FC910190F081E02DC60119950F
:100B8000892B11F47E0102C02196ECCFC701DF91C1
:100B9000CF911F910F91FF90EF90DF90CF9008952C
:100BA0000E94A511EF92FF920F931F93CF93DF93B3
:100BB000EC017B018A0188819981009729F02A81C3
:100BC0003B8124173507F8F4B8016F5F7F4F0E940F
:100BD000C110009759F0998388831B830A832C8165
:100BE0003D81232B81F4FC0110820DC08881998105
:100BF000009711F00E942910198218821D821C8210
:100C00001B821A8207C01D830C83B70188819981DA
:100C10000E94B211CE01DF91CF911F910F91FF90F1
:100C2000EF900895EAE7F2E0A089B18982E08C9321
:100C3000A485B5851C92A685B7858FEC8C93108E04
:100C4000A489B58986E08C93A289B3898C9180614F
:100C50008C93A289B3898C9188608C93A289B38983
:100C60008C9180688C930288F389E02D80818F7D40
:100C7000808308958F929F92AF92BF92CF92DF921E
:100C8000EF92FF926B017C01B2DD4B015C01C60E5D
:100C9000D71EE81EF91EABDD681579058A059B0590
:100CA00028F0C616D706E806F906A8F7FF90EF90D9
:100CB000DF90CF90BF90AF909F908F900895611577
:100CC000710579F0FB0101900020E9F73197AF0140
:100CD000461B570BDC01ED91FC910280F381E02D66
:100CE000199480E090E008954F925F926F927F9206
:100CF000EF92FF920F931F93CF93DF93CDB7DEB7A1
:100D0000A1970FB6F894DEBF0FBECDBF7C01FA01EC
:100D1000CB0119A2223008F42AE08E010F5D1F4F8B
:100D2000422E512C612C712CBF01A3019201D0D70E
:100D3000F901CA01015011096A3014F4605D01C063
:100D4000695CD8016C93232B242B252B69F7B80100
:100D5000C701B5DFA1960FB6F894DEBF0FBECDBFB9
:100D6000DF91CF911F910F91FF90EF907F906F9047
:100D70005F904F900895A3CFCF93DF93CDB7DEB7A9
:100D80002E970FB6F894DEBF0FBECDBF789484B512
:100D9000826084BD84B5816084BD85B5826085BD77
:100DA00085B5816085BD80916E00816080936E0005
:100DB00010928100809181008260809381008091F7
:100DC00081008160809381008091800081608093A8
:100DD00080008091B10084608093B1008091B00068
:100DE00081608093B0008091910082608093910037
:100DF000809191008160809391008091900081604A
:100E0000809390008091A10082608093A1008091E6
:100E1000A10081608093A1008091A00081608093F7
:100E2000A0008091210182608093210180912101A5
:100E30008160809321018091200181608093200155
:100E400080917A00846080937A0080917A00826039
:100E500080937A0080917A00816080937A008091FB
:100E60007A00806880937A001092C10010925B0330
:100E700010925C0310925D0310925E0310921903AE
:100E800010921A0310921B0310921C0368EB7BE074
:100E900080E090E0EFDE8AE792E090935A0380933F
:100EA0005903C0DEA4DC6093190370931A03809386
:100EB0001B0390931C0364E372E0809159039091AB
:100EC0005A0359DF6AE070E080E090E0D3DE81E011
:100ED00080932D03A7DE61E08CE04DDC61E083E0D0
:100EE0004ADC80E090E0A0EAB2E48093AC03909307
:100EF000AD03A093AE03B093AF038091F2038111D1
:100F000046C0E091D603F091D703C080D180E28043
:100F1000F380C092DE03D092DF03E092E003F09210
:100F2000E103E091D403F091D50380819181A28106
:100F3000B3818093E2039093E303A093E403B0931F
:100F4000E5038090EE039090EF03A090F003B09043
:100F5000F103A5019401C701B601DAD718167CF098
:100F60008090EA039090EB03A090EC03B090ED0327
:100F7000A5019401C701B60192D587FF08C08092F0
:100F8000DE039092DF03A092E003B092E10311E050
:100F90001093F2036091E6037091E7038091E803F8
:100FA0009091E90380D59B01AC0160E070E088EC92
:100FB00092E415D76B017C019B01AC016091C803E1
:100FC0007091C9038091CA039091CB03CDD56093F2
:100FD000C8037093C9038093CA039093CB03A701FE
:100FE00096016091CC037091CD038091CE039091D6
:100FF000CF03F5D66093CC037093CD038093CE03DB
:101000009093CF0384E690E0A0E0B0E08093E60305
:101010009093E703A093E803B093E90310936C0265
:1010200060E083E0A8DB81E193E09093010280938C
:10103000000280916A008C7F816080936A00EC9A44
:10104000D6DB672B682B692B39F4D1DB6230710555
:101050008105910508F4FBC0CADB609376027093AA
:101060007702809378029093790200917202109136
:101070007302209174023091750260177107820724
:10108000930740F46093720270937302809374022A
:101090009093750200917202109173022091740274
:1010A000309175026B017C01C01AD10AE20AF30A81
:1010B000970186010A3F11052105310508F4C7C0D3
:1010C000609372027093730280937402909375021E
:1010D00084EF91E0A0E0B0E0809325039093260395
:1010E000A0932703B09328031092290310922A0398
:1010F00010922B0310922C0380911D0390911E03DC
:10110000A0911F03B09120038093210390932203A9
:10111000A0932303B09324036ADB60931D037093B1
:101120001E0380931F039093200361DB60931903D8
:1011300070931A0380931B0390931C0358DB6B017D
:101140007C0166E472E08091590390915A0313DEAA
:101150002AE041E050E060E070E080915903909116
:101160005A03C2DD6DE472E08091590390915A03F5
:1011700002DE2AE0B701A6018091590390915A033B
:10118000B3DD6FE472E08091590390915A03F3DD6F
:1011900080911D0390911E03A0911F03B091200325
:1011A000B701A601481B590B6A0B7B0B2AE0809103
:1011B000590390915A0398DD6FE472E080915903CE
:1011C00090915A03D8DD40911D0350911E03609108
:1011D0001F03709120038091210390912203A0911D
:1011E0002303B0912403481B590B6A0B7B0B2AE0A5
:1011F0008091590390915A0377DD61E572E0809107
:10120000590390915A03B7DDF2DAAB01BC012AE031
:101210008091590390915A0367DD00915903109111
:101220005A0363E572E0C8014ADD63E472E0C80175
:1012300046DD62E070E080E090E01CDDD8DA60938B
:101240001D0370931E0380931F03909320038AE76E
:1012500092E064D8181619060CF04DC08AE792E0A7
:101260003BD8182F80919803181326C010929C0326
:10127000E0919B03F0E0E15AFC4F13866AE572E0CF
:101280008AE693E0DAD3BCD390936403809363033C
:101290006AE572E080E090E0D0D3B2D3909360032F
:1012A00080935F036AE572E080E090E0C6D3A8D344
:1012B000909368038093670380919C03882389F04F
:1012C00080919B03E82FF0E0E15AFC4F138791E0F7
:1012D000980F90939B0320916903921302C080930F
:1012E0009B03809197031813B2CF10929B0391E058
:1012F00090939C03ACCF60915F0370916003072EC5
:10130000000C880B990BD1D36093AC037093AD03A1
:101310008093AE039093AF03C090B003D090B1031D
:10132000E090B203F090B303809163039091640363
:10133000892B19F461E089E016C060E089E041D9A9
:10134000C701B601B4D56B017C018B0161E083E07C
:1013500012DAC114D10411F460E004C00F3F11058A
:1013600021F461E083E02DD9ABC0E9E0F2E08491A3
:1013700090E0FC013197E231F10508F09CC088272C
:10138000EC57FF4F8F4FC8C584B5806884BDC7BC7C
:1013900097C084B5806284BDC8BC92C08091800033
:1013A000806880938000D0928900C092880088C0B5
:1013B00080918000806280938000D0928B00C092E8
:1013C0008A007EC080918000886080938000D092E7
:1013D0008D00C0928C0074C08091B00080688093B2
:1013E000B000C092B3006CC08091B0008062809366
:1013F000B000C092B40064C0809190008068809377
:101400009000D0929900C09298005AC080919000AC
:10141000806280939000D0929B00C0929A0050C04E
:1014200080919000886080939000D0929D00C0923F
:101430009C0046C08091A00080688093A0008091AD
:10144000A0008F7B8093A000D092A900C092A8003A
:1014500037C08091A00080628093A000D092AB0042
:10146000C092AA002DC08091A00088608093A00047
:10147000D092AD00C092AC0023C080912001806862
:1014800080932001D0922901C092280119C0809137
:101490002001806280932001D0922B01C0922A010A
:1014A0000FC080912001886080932001D0922D018F
:1014B000C0922C0105C0003811050CF052CF4CCF62
:1014C0008091670390916803892B11F461E001C05A
:1014D00060E08CE076D8C0906E02D0906F02E09011
:1014E0007002F090710220E030E0A901C701B6015E
:1014F0000FD5181624F0F7FAF094F7F8F094C0928C
:10150000B403D092B503E092B603F092B7033090E3
:10151000F203311002C0312C34C169D96D837E834E
:101520008F8398878091DA039091DB03A091DC038D
:10153000B091DD034D815E816F817885481B590B29
:101540006A0B7B0B8091E6039091E703A091E8037F
:10155000B091E903481759076A077B07E0F2209129
:10156000D4033091D503D901CD90DD90ED90FC905E
:10157000C982DA82EB82FC82E091D803F091D90330
:10158000A70196016081718182819381C3D34B0150
:101590005C012091E2033091E3034091E403509118
:1015A000E503C701B601B6D36B017C012091C803E6
:1015B0003091C9034091CA035091CB03C501B401D6
:1015C000D3D22091DE033091DF034091E0035091AC
:1015D000E103A1D32B013C016093DE037093DF0391
:1015E0008093E0039093E1032090F303211018C04F
:1015F0002091C4033091C5034091C6035091C703A5
:10160000C701B601B1D29B01AC01C301B20182D3C3
:101610006093DE037093DF038093E0039093E10314
:101620004090DE035090DF036090E0037090E10390
:101630001091EE030091EF03B091F003BE87E091AB
:10164000F103ED87212F302F4B2F5E2FC301B20105
:101650005FD418162CF4812F902FAE85BD8517C04E
:101660008091EA039091EB03A091EC03B091ED031C
:1016700089879A87AB87BC879C01AD01C301B20102
:101680000ED287FF0CC089859A85AB85BC85809377
:10169000DE039093DF03A093E003B093E1032220E5
:1016A00071F02091C4033091C5034091C60350915D
:1016B000C703C501B40158D24B015C0103C0812CA2
:1016C000912C54012091CC033091CD034091CE0355
:1016D0005091CF03C701B60147D29B01AC01609185
:1016E000DE037091DF038091E0039091E10312D358
:1016F0009B01AC01C501B4010ED36B017C01212F0C
:10170000302F4E855D8504D41816BCF01091EA0385
:101710000091EB039091EC039E87A091ED03AD87C0
:10172000212F302F492F5A2FB601C701B8D187FD7D
:1017300004C01C2D0D2DEE86FD86E091D603F091A0
:10174000D703812F902FAE85BD8580839183A2839F
:10175000B383C980DA80EB80FC80C092E203D09230
:10176000E303E092E403F092E503CD80DE80EF80B6
:10177000F884C092DA03D092DB03E092DC03F092AB
:10178000DD0330926D02332009F43FC06CE572E056
:101790008AE792E0F0DA60916E0270916F028091B8
:1017A00070029091710283D3CC24DD24C61AD70A2B
:1017B0000D2C000CEE08FF08F7FE14C0E0917A0231
:1017C000F0917B020190F081E02D6DE28AE792E0DA
:1017D000199544275527BA014C195D096E097F09EF
:1017E0002AE003C02AE0B701A6018AE792E07CDA8A
:1017F0006EE572E08AE792E0BEDA10926E02109215
:101800006F0210927002109271020E942B0218CC8B
:101810008091A4039091A5031CD480919D03909185
:101820009E0317C40F931F93CF93DF93EAE7F2E071
:101830001382128288EE93E0A0E0B0E08483958367
:10184000A683B7838AE192E09183808385EC90E060
:101850009587848784EC90E09787868780EC90E07A
:10186000918B808B81EC90E0938B828B82EC90E06B
:10187000958B848B86EC90E0978B868B118E128EE5
:10188000138E148EE7E1F3E016821782108611861C
:10189000128613861486158616861786108A118A74
:1018A000128A138A148A158AC8EBD3E080EB93E07E
:1018B0009F8F8E8F84EB93E09D8F8C8F8CEA93E0CB
:1018C00099A388A31AAE1AAA1BAA1CAA1DAA80E073
:1018D00090E0AFE7B3E48EAB9FABA8AFB9AF84E6BF
:1018E00090E0A0E0B0E08EA79FA7A8ABB9AB198E9F
:1018F000188E81E090E09B8F8A8F8BAF8AE999E9FF
:10190000A9E1BFE388839983AA83BB8340E050E0C9
:1019100060EA70E44C835D836E837F83188619864A
:101920001A861B868C879D87AE87BF8780E090E0F4
:10193000A0E0BFE3888B998BAA8BBB8B1C8A1D8A86
:101940001E8A1F8A0E94F7030EA51FA528A939A980
:10195000DC01CB01801B910BA20BB30B8AA39BA3D1
:10196000ACA3BDA3CFE5D3E080E590E09983888365
:101970008DE28A878CE388AF8EE389AF83E28AAFFA
:1019800084E28BAF1CAE10929C0310929E031092C7
:101990009D031092A00310929F031092A203109235
:1019A000A10340E050E065E472E08DE993E0FAD8ED
:1019B0001092A3031092A5031092A4031092A70300
:1019C0001092A6031092A9031092A80340E050E0E1
:1019D00065E472E084EA93E0E5D861E08CE00E947F
:1019E000BB0361E089E00E94BB031D821C821F8251
:1019F0001E8219861886DF91CF911F910F9108954D
:101A0000FC0188279927E89421912032E9F32930B5
:101A100010F02E30C8F32B3239F02D3231F46894A7
:101A200003C035D0820F911D219120532A30C8F375
:101A30001EF4909581959F4F089544EF53E000C0A8
:101A4000FA01A191B081009719F41097E1F0CD014E
:101A5000DC01CD010D90002011F4C00113C0FB0189
:101A60002191222319F02015D9F7F3CFFB01219101
:101A7000201519F41E92119606C02223C1F70D906D
:101A80000020A1F7D001FA01A193B08308957AE074
:101A9000979F902D879F802D910D1124089540D000
:101AA00008F481E00895E89409C097FB3EF490950E
:101AB0008095709561957F4F8F4F9F4F9923A9F027
:101AC000F92F96E9BB279395F695879577956795B6
:101AD000B795F111F8CFFAF4BB0F11F460FF1BC0FA
:101AE0006F5F7F4F8F4F9F4F16C0882311F096E98D
:101AF00011C0772321F09EE8872F762F05C066233B
:101B000071F096E8862F70E060E02AF09A95660FF3
:101B1000771F881FDAF7880F9695879597F90895AC
:101B2000990F0008550FAA0BE0E8FEEF16161706EE
:101B3000E807F907C0F012161306E407F50798F056
:101B4000621B730B840B950B39F40A2661F0232B6F
:101B5000242B252B21F408950A2609F4A140A695EB
:101B60008FEF811D811D08950BD078C069D028F0BA
:101B70006ED018F0952309F05AC05FC01124A2C09E
:101B80007ED0A0F3959FD1F3950F50E0551F629F33
:101B9000F001729FBB27F00DB11D639FAA27F00DC6
:101BA000B11DAA1F649F6627B00DA11D661F829FED
:101BB0002227B00DA11D621F739FB00DA11D621FD2
:101BC000839FA00D611D221F749F3327A00D611DEF
:101BD000231F849F600D211D822F762F6A2F1124D1
:101BE0009F5750408AF0E1F088234AF0EE0FFF1F24
:101BF000BB1F661F771F881F91505040A9F79E3F5B
:101C0000510570F014C05EC05F3FECF3983EDCF30A
:101C1000869577956795B795F795E7959F5FC1F797
:101C2000FE2B880F911D9695879597F9089597F942
:101C30009F6780E870E060E008959FEF80EC089572
:101C400000240A941616170618060906089500249B
:101C50000A9412161306140605060895092E039415
:101C6000000C11F4882352F0BB0F40F4BF2B11F489
:101C700060FF04C06F5F7F4F8F4F9F4F089557FDE8
:101C80009058440F551F59F05F3F71F04795880FEA
:101C900097FB991F61F09F3F79F087950895121681
:101CA00013061406551FF2CF4695F1DF08C016162D
:101CB00017061806991FF1CF8695710561050894DE
:101CC0000895E894BB2766277727CB0197F90895F5
:101CD000A1E21A2EAA1BBB1BFD010DC0AA1FBB1F30
:101CE000EE1FFF1FA217B307E407F50720F0A21BA2
:101CF000B30BE40BF50B661F771F881F991F1A940F
:101D000069F760957095809590959B01AC01BD0138
:101D1000CF0108955058BB27AA270ED09FCF90DF40
:101D200030F095DF20F031F49F3F11F41EF485CFA1
:101D30000EF4E095E7FB7BCFE92FA1DF80F3BA1724
:101D4000620773078407950718F071F49EF5B9CF01
:101D50000EF4E0950B2EBA2FA02D0B01B9019001C6
:101D60000C01CA01A0011124FF27591B99F0593F0A
:101D700050F4503E68F11A16F040A22F232F342F52
:101D80004427585FF3CF469537952795A795F040A0
:101D90005395C9F77EF41F16BA0B620B730B840BB5
:101DA000BAF09150A1F0FF0FBB1F661F771F881F6D
:101DB000C2F70EC0BA0F621F731F841F48F48795C5
:101DC00077956795B795F7959E3F08F0B3CF9395B4
:101DD000880F08F09927EE0F9795879508950CD0F6
:101DE0003DCF35DF40F02CDF30F021F45F3F19F0BC
:101DF0001ECF511167CF21CF42DF98F39923C9F34A
:101E00005523B1F3951B550BBB27AA276217730700
:101E1000840738F09F5F5F4F220F331F441FAA1FB4
:101E2000A9F333D00E2E3AF0E0E830D09150504074
:101E3000E695001CCAF729D0FE2F27D0660F771F22
:101E4000881FBB1F261737074807AB07B0E809F004
:101E5000BB0B802DBF01FF2793585F4F2AF09E3F99
:101E6000510568F0E4CE2ECF5F3FECF3983EDCF3F3
:101E7000869577956795B795F7959F5FC9F7880F12
:101E8000911D9695879597F90895E1E0660F771F64
:101E9000881FBB1F621773078407BA0720F0621BF5
:101EA000730B840BBA0BEE1F88F7E095089504D0EE
:101EB0006894B11107CF0895EADE88F09F5790F03B
:101EC000B92F9927B751A0F0D1F0660F771F881F5F
:101ED000991F1AF0BA95C9F712C0B13081F0F1DE3E
:101EE000B1E00895EECE672F782F8827B85F39F0DC
:101EF000B93FCCF3869577956795B395D9F73EF4BE
:101F000090958095709561957F4F8F4F9F4F089565
:101F100007DE08F48FEF0895EE0FFF1F881F8BBFB9
:101F20000790F691E02D1994CF93DF9382309105BD
:101F300010F482E090E0E091F803F091F90320E0E2
:101F400030E0C0E0D0E0309711F140815181481776
:101F50005907C0F04817590761F48281938120978F
:101F600019F09B838A832BC09093F9038093F80325
:101F700026C02115310519F04217530718F49A01AC
:101F8000BE01DF01EF010280F381E02DDCCF2115DE
:101F9000310509F1281B390B2430310590F41296D4
:101FA0008D919C9113976115710521F0FB0193832D
:101FB000828304C09093F9038093F803FD01329665
:101FC00044C0FD01E20FF31F819391932250310928
:101FD0002D933C933AC02091F6033091F703232BC5
:101FE00041F420911202309113023093F7032093B1
:101FF000F60320911002309111022115310541F4B0
:102000002DB73EB74091140250911502241B350B99
:10201000E091F603F091F703E217F307A0F42E1B0B
:102020003F0B2817390778F0AC014E5F5F4F24173C
:10203000350748F04E0F5F1F5093F7034093F603A8
:102040008193919302C0E0E0F0E0CF01DF91CF9166
:1020500008950F931F93CF93DF93009709F48CC0DB
:10206000FC013297138212820091F8031091F90358
:102070000115110581F420813181820F931F209178
:10208000F6033091F7032817390779F5F093F70332
:10209000E093F60371C0D80140E050E0AE17BF07EF
:1020A00050F412962D913C911397AD0121153105F5
:1020B00009F1D901F3CF9D01DA01338322836081D5
:1020C0007181860F971F8217930769F4EC012881AD
:1020D0003981260F371F2E5F3F4F318320838A813E
:1020E0009B8193838283452B29F4F093F903E0933A
:1020F000F80342C01396FC93EE931297ED014991B9
:1021000059919E01240F351FE217F30771F4808166
:102110009181840F951F029611969C938E938281D4
:10212000938113969C938E931297E0E0F0E0D80190
:1021300012968D919C911397009719F0F8018C01DC
:10214000F6CF8D919C9198012E5F3F4F820F931F88
:102150002091F6033091F7032817390769F4309777
:1021600029F41092F9031092F80302C0138212822C
:102170001093F7030093F603DF91CF911F910F9116
:1021800008956F927F928F929F92AF92BF92CF925B
:10219000DF92EF92FF920F931F93CF93DF93EC01A7
:1021A000009781F4CB01DF91CF911F910F91FF90A8
:1021B000EF90DF90CF90BF90AF909F908F907F90E7
:1021C0006F90B2CEFC01E60FF71F9C01225031093F
:1021D000E217F30708F4A8C0D9010D911C911197DB
:1021E00006171707A8F00530110508F49BC0C801B1
:1021F00004978617970708F495C002501109061B2B
:10220000170B019311936D937C93CF0122DF8AC04A
:102210005B01A01AB10A4C01800E911EA091F80337
:10222000B091F90340E050E0E12CF12C109709F453
:102230004AC0A815B905D1F56D907C90119763013E
:1022400082E0C80ED11CCA14DB0480F1A3014A1934
:102250005B096A0182E0C80ED11C1296BC901297ED
:102260001396AC91B5E0CB16D10440F0B282A383B3
:1022700051834083D9016D937C930AC00E5F1F4F39
:10228000C301800F911FF90191838083EB2DFA2FF9
:10229000E114F10431F0D7011396FC93EE931297F9
:1022A00041C0F093F903E093F8033CC08D919C91F9
:1022B00011974817590708F4AC017D0112960D904B
:1022C000BC91A02DB3CF8091F6039091F7038815B0
:1022D0009905E1F446175707C8F4809110029091D0
:1022E0001102009741F48DB79EB7409114025091AE
:1022F0001502841B950BE817F907B0F4F093F70368
:10230000E093F603F901718360830CC0CB010CDE0E
:102310007C01009749F0A801BE011BD0CE0199DED7
:10232000C70104C0CE0102C080E090E0DF91CF91F0
:102330001F910F91FF90EF90DF90CF90BF90AF90E3
:102340009F908F907F906F90089581E090E0F89437
:1023500010C0FB01DC0102C001900D9241505040C1
:10236000D8F70895FB01DC0101900D920020E1F700
:10237000089511E0C7E2D1E000E005C0802FFE0122
:10238000CBDD2196011DC832D10780E00807B1F7E7
:04239000F894FFCFEF
:1023940010031003100310031003100310031003A1
:1023A4000000FA03800000000000C401A5055D01DF
:1023B4000A028E016C0180019A99193F0000A04025
:1023C40000000000564D4450565F317C315F564D3D
:1023D4004450560D0A00564D4450455F003A323A77
:1023E400007C005F564D445045002C003C003E0AE2
:0223F4000000E7
:020000023000CC
:10E000000D9489F10D94B2F10D94B2F10D94B2F129
:10E010000D94B2F10D94B2F10D94B2F10D94B2F1F0
:10E020000D94B2F10D94B2F10D94B2F10D94B2F1E0
:10E030000D94B2F10D94B2F10D94B2F10D94B2F1D0
:10E040000D94B2F10D94B2F10D94B2F10D94B2F1C0
:10E050000D94B2F10D94B2F10D94B2F10D94B2F1B0
:10E060000D94B2F10D94B2F10D94B2F10D94B2F1A0
:10E070000D94B2F10D94B2F10D94B2F10D94B2F190
:10E080000D94B2F10D94B2F10D94B2F10D94B2F180
:10E090000D94B2F10D94B2F10D94B2F10D94B2F170
:10E0A0000D94B2F10D94B2F10D94B2F10D94B2F160
:10E0B0000D94B2F10D94B2F10D94B2F10D94B2F150
:10E0C0000D94B2F10D94B2F10D94B2F10D94B2F140
:10E0D0000D94B2F10D94B2F10D94B2F10D94B2F130
:10E0E0000D94B2F141546D656761323536300041AF
:10E0F000726475696E6F206578706C6F72657220DE
:10E1000073746B3530305632206279204D4C530099
:10E11000426F6F746C6F616465723E004875683F52
:10E1200000436F6D70696C6564206F6E203D200048
:10E130004350552054797065202020203D20005FF9
:10E140005F4156525F415243485F5F3D2000415658
:10E1500052204C696243205665723D20004743437C
:10E160002056657273696F6E203D20004350552024
:10E1700049442020202020203D20004C6F7720663D
:10E18000757365202020203D20004869676820665F
:10E190007573652020203D200045787420667573D6
:10E1A00065202020203D20004C6F636B2066757336
:10E1B000652020203D20004D617220203720323024
:10E1C000313300312E362E3800342E332E350056A2
:10E1D00023202020414444522020206F7020636F70
:10E1E00064652020202020696E73747275637469E1
:10E1F0006F6E2061646472202020496E74657272B3
:10E20000757074006E6F20766563746F7200726A49
:10E210006D702020006A6D70200057686174207056
:10E220006F72743A00506F7274206E6F7420737541
:10E2300070706F72746564004D7573742062652030
:10E2400061206C6574746572002000577269747483
:10E25000696E672045450052656164696E672045B7
:10E26000450045452065727220636E743D00504F35
:10E27000525400303D5A65726F2061646472003FF1
:10E280003D43505520737461747300403D454550C3
:10E29000524F4D207465737400423D426C696E6B41
:10E2A000204C454400453D44756D70204545505215
:10E2B0004F4D00463D44756D7020464C415348001B
:10E2C000483D48656C70004C3D4C69737420492F83
:10E2D0004F20506F72747300513D51756974005234
:10E2E0003D44756D702052414D00563D73686F7707
:10E2F00020696E7465727275707420566563746FF0
:10E30000727300593D506F727420626C696E6B00BD
:10E310002A0011241FBECFEFD1E2DEBFCDBF01E046
:10E320000CBF12E0A0E0B2E0EEE1FDEF03E00BBFB6
:10E3300002C007900D92A030B107D9F712E0A0E01B
:10E34000B2E001C01D92AE30B107E1F70F9460F367
:10E350000D948DFE01E20EBF0FEF0DBF11241FBE05
:10E360000D9460F30D9400F020E030E040ED57E0B4
:10E3700005C0FA013197F1F72F5F3F4F2817390792
:10E38000C0F308959C01260F311DC901A0E0B0E043
:10E390002F5F3F4FABBFFC018791882361F08093D3
:10E3A000C6008091C00086FFFCCF8091C0008064D1
:10E3B0008093C000EACF08958DE08093C6008091DD
:10E3C000C00086FFFCCF8091C00080648093C000B5
:10E3D0008AE08093C6008091C00086FFFCCF8091C8
:10E3E000C00080648093C00008950F94C2F10F9420
:10E3F000DCF10895FC019081992359F09093C600B7
:10E400008091C00086FFFCCF8091C0008064809323
:10E41000C0003196992379F70895282F982F929567
:10E420009F70892F805D8A3308F0895F8093C600D2
:10E430008091C00086FFFCCF8091C00080648093F3
:10E44000C000822F8F70982F905D9A3308F0995FEB
:10E450009093C6008091C00086FFFCCF8091C000E1
:10E4600080648093C00008959C01FB01853691056E
:10E470001CF46330710594F0C90164E670E00F94F8
:10E480002EFE605D7F4F6093C6008091C00086FFC6
:10E49000FCCF8091C00080648093C0002B30310598
:10E4A00014F43297B4F0C90164E670E00F942EFEC4
:10E4B0006AE070E00F942EFE605D7F4F6093C600AF
:10E4C0008091C00086FFFCCF8091C0008064809363
:10E4D000C000C9016AE070E00F942EFEC0968093E0
:10E4E000C6008091C00086FFFCCF8091C000806490
:10E4F0008093C00008951F93182F8EE692EE60E07F
:10E500000F94C2F11093C6008091C00086FFFCCF2B
:10E510008091C00080648093C0000F94DCF11F9153
:10E5200008952F923F924F925F926F927F928F92B7
:10E530009F92AF92BF92CF92DF92EF92FF920F9392
:10E540001F93DF93CF93CDB7DEB762970FB6F894E2
:10E55000DEBF0FBECDBF382E622ECA01DB015C01CB
:10E560006D01772420E2222E2E010894411C511CBB
:10E570008BC081E0A81680E0B80681E0C80680E084
:10E58000D80628F0C601AA27BB270F940DF2BB2797
:10E59000AD2D9C2D8B2D0F940DF28A2D0F940DF225
:10E5A0002092C6008091C00086FFFCCF8091C00001
:10E5B00080648093C0009DE29093C6008091C0006B
:10E5C00086FFFCCF8091C00080648093C0002092C1
:10E5D000C6008091C00086FFFCCF8091C00080649F
:10E5E0008093C00019828601750188249924A1E0D6
:10E5F0003A1651F03A1620F0B2E03B1661F409C029
:10E600000BBFF701779007C0C7010F9477FE782EF4
:10E6100002C0F7017080872D0F940DF22092C60082
:10E620008091C00086FFFCCF8091C0008064809301
:10E63000C000872D8052F401EF70F0708F3520F408
:10E64000E40DF51D708204C0E40DF51D8EE280839B
:10E650000894E11CF11C011D111D0894811C911CE2
:10E6600090E18916910409F0C2CF80E190E0A0E02A
:10E67000B0E0A80EB91ECA1EDB1E198AC2010F9493
:10E68000FAF10F94DCF16A94662009F072CF629679
:10E690000FB6F894DEBF0FBECDBFCF91DF911F91B3
:10E6A0000F91FF90EF90DF90CF90BF90AF909F9031
:10E6B0008F907F906F905F904F903F902F90089534
:10E6C0002F923F924F925F926F927F928F929F9282
:10E6D000AF92BF92CF92DF92EF92FF920F931F9370
:10E6E000DF93CF93CDB7DEB7CD53D1400FB6F894BB
:10E6F000DEBF0FBECDBF01E20EBF0FEF0DBF94B75F
:10E70000F894A89514BE80916000886180936000A1
:10E7100010926000789493FF05C0E0910002F091A0
:10E7200001021995279A2F9A8091C00082608093E8
:10E73000C00080E18093C40088E18093C1000000A4
:10E74000EE24FF24870144E0A42EB12CCC24DD2448
:10E7500024C0C5010197F1F70894E11CF11C011DCB
:10E76000111D21E2E2162EE4F20620E0020720E06D
:10E77000120718F031E0C32ED12CC801B70127ECE5
:10E780003BE140E050E00F9441FE611571058105C9
:10E79000910519F485B1805885B98091C00087FD35
:10E7A00003C0C114D104A9F2A6014F5F5F4FC25E3E
:10E7B000DE4F59834883CE51D140C25EDE4F8881FF
:10E7C0009981CE51D140019711F00D9410FEC05D9A
:10E7D000DE4F19821882C053D14060E0C15DDE4F28
:10E7E0001882CF52D14088249924C35DDE4F19820C
:10E7F0001882CD52D140C05EDE4F188219821A8233
:10E800001B82C052D140CE5CDE4F188219821A8220
:10E810001B82C253D140EE24FF2487010BBFF701B6
:10E8200007911691C45CDE4F19830883CC53D14005
:10E830000D940BFEC25EDE4F28813981CE51D1404E
:10E840002130310509F52091C600C25EDE4F1982E4
:10E850001882CE51D14022C02F5F3F4F4F4F5F4FA4
:10E86000213082E138078AE7480780E0580780F0C6
:10E87000C45CDE4FE881F981CC53D140EF5FFF4F9C
:10E8800019F0EE27FF27099420E030E040E050E047
:10E890008091C00087FFE0CF2091C600C35DDE4FAE
:10E8A00048815981CD52D1404F5F5F4FC35DDE4FEC
:10E8B00059834883CD52D140213209F063C64A3092
:10E8C000510508F05FC60894811C911C53E0851621
:10E8D000910409F059C600E010E018C081E280936D
:10E8E000C6008091C00086FFFCCF8091C00080648C
:10E8F0008093C0002F5F3F4F2931310579F70F9486
:10E90000DCF10F5F1F4F0530110519F020E030E0FA
:10E91000E5CF10920A0210920B0210920C02109294
:10E920000D02109206021092070210920802109235
:10E930000902109202021092030210920402109235
:10E9400005028FEE90EE60E00F94F5F180E191EE1C
:10E9500060E00F94C2F18091C00087FFFCCF9091DE
:10E96000C600903608F09F759032B8F09093C600BC
:10E970008091C00086FFFCCF8091C00080648093AE
:10E98000C000A0E2A093C6008091C00086FFFCCF2B
:10E990008091C00080648093C000983409F4D7C18E
:10E9A0009934B8F4923409F459C1933458F490333B
:10E9B00019F1903308F4E3C59F33A1F1903409F0C5
:10E9C000DEC5BDC0953409F470C1963409F0D7C5D1
:10E9D00098C1923509F42BC2933538F49C3409F46C
:10E9E000F5C1913509F0CBC518C2963509F445C279
:10E9F000993509F0C4C567C483E792EE62E00F94CD
:10EA0000F5F110920602109207021092080210927D
:10EA1000090210920A0210920B0210920C0210923C
:10EA20000D0213C18FE792EE62E00F94F5F18FEEC5
:10EA300090EE60E00F94F5F181E291EE60E00F94CA
:10EA4000C2F187EB91EE60E00F94F5F180E391EE77
:10EA500060E00F94C2F184EE90EE60E00F94F5F167
:10EA60008FE391EE60E00F94C2F186E090E061E008
:10EA700070E00F9434F20F94DCF18DE591EE60E0DC
:10EA80000F94C2F189EC91EE60E00F94F5F18EE401
:10EA900091EE60E00F94C2F183EC91EE60E00F9490
:10EAA000F5F18CE691EE60E00F94C2F18EE10F94E7
:10EAB0000DF288E90F940DF281E00F940DF20F949E
:10EAC000DCF18BE791EE60E00F94C2F119E0E0E039
:10EAD000F0E010935700E4918E2F0F940DF20F94F5
:10EAE000DCF18AE891EE60E00F94C2F1E3E0F0E03F
:10EAF00010935700E4918E2F0F940DF20F94DCF1D8
:10EB000089E991EE60E00F94C2F1E2E0F0E0109349
:10EB10005700E4918E2F0F940DF20F94DCF188EAE8
:10EB200091EE60E00F94C2F1E1E0F0E01093570045
:10EB30001491812F0F940DF20F94DCF107CF8BE825
:10EB400092EE62E00F94F5F18BE492EE60E00F94A8
:10EB5000F5F10F94DCF100E010E019C0C8016F2D51
:10EB60000F947FFEFF2031F489E492EE60E00F9471
:10EB7000C2F10BC0F092C6008091C00086FFFCCFAE
:10EB80008091C00080648093C0000F5F1F4FC80158
:10EB900081519F41A0E0B0E0ABBFFC01F790BAE229
:10EBA000FB1621F0E2E000301E07C1F60F94DCF105
:10EBB0000F94DCF187E592EE60E00F94F5F10F948D
:10EBC000DCF1CC24DD2400E010E01EC0C8010F946D
:10EBD00077FEF82E882331F489E492EE60E00F94FA
:10EBE000C2F10BC08093C6008091C00086FFFCCFAD
:10EBF0008091C00080648093C000FE1419F00894D6
:10EC0000C11CD11C0F5F1F4FC80181519F41A0E063
:10EC1000B0E0ABBFFC01E790FAE2EF1621F022E092
:10EC20000030120799F60F94DCF10F94DCF182E6C4
:10EC300092EE60E00F94C2F1C60161E070E00F94C3
:10EC400034F20F94DCF10F94DCF110920202109276
:10EC50000302109204021092050278CE89E992EE26
:10EC600062E00F94F5F1279A2F9A16C02F9880E052
:10EC700090E0E0EDF7E03197F1F7019684369105E9
:10EC8000C1F72F9A80E090E0E0EDF7E03197F1F7DF
:10EC9000019684369105C1F78091C00087FFE6CFC9
:10ECA0008091C00087FFFCCF64C485EA92EE62E0E9
:10ECB0000F94F5F140910202509103026091040219
:10ECC0007091050281E020E10F9491F2809102029F
:10ECD00090910302A0910402B091050280509F4FD1
:10ECE000AF4FBF4F8093020290930302A0930402A0
:10ECF000B093050280509041A040B04008F426CE69
:10ED0000A4CF83EB92EE62E00F94F5F140910602FE
:10ED100050910702609108027091090280E020E1A1
:10ED20000F9491F28091060290910702A09108023F
:10ED3000B091090280509F4FAF4FBF4F80930602A2
:10ED400090930702A0930802B0930902FFCD80ECD4
:10ED500092EE62E00F94F5F183E792EE60E00F949B
:10ED6000F5F18FE792EE60E00F94F5F18BE892EE0B
:10ED700060E00F94F5F189E992EE60E00F94F5F10F
:10ED800085EA92EE60E00F94F5F183EB92EE60E09D
:10ED90000F94F5F180EC92EE60E00F94F5F187ECC2
:10EDA00092EE60E00F94F5F188ED92EE60E00F9442
:10EDB000F5F18FED92EE60E00F94F5F18AEE92EEB0
:10EDC00060E00F94F5F183E093EEBDCD87EC92EE19
:10EDD00062E00F94F5F181E40F947BF282E40F94EA
:10EDE0007BF283E40F947BF284E40F947BF285E45E
:10EDF0000F947BF286E40F947BF287E40F947BF20E
:10EE000088E40F947BF28AE40F947BF28BE40F94F6
:10EE10007BF28CE40F947BF299CD88ED92EE62E068
:10EE20000F94F5F1772473948824992409C48FED05
:10EE300092EE62E00F94F5F140910A0250910B02BC
:10EE400060910C0270910D0282E020E10F9491F22A
:10EE500080910A0290910B02A0910C02B0910D02D8
:10EE600080509F4FAF4FBF4F80930A0290930B0289
:10EE7000A0930C02B0930D0269CD8AEE92EE62E08F
:10EE80000F94F5F184EE90EE60E00F94F5F18FECC5
:10EE900091EE60E00F94F5F1662477244301CC5D98
:10EEA000DE4F19821882C452D140D401C301B695F5
:10EEB000A79597958795CA5DDE4F88839983AA8326
:10EEC000BB83C652D140CC5DDE4FA881B981C4520C
:10EED000D1401196CC5DDE4FB983A883C452D14096
:10EEE000CD0162E070E00F9434F2B0E2B093C6005E
:10EEF0008091C00086FFFCCF8091C0008064809329
:10EF0000C000EDE2E093C6008091C00086FFFCCF18
:10EF10008091C00080648093C000F0E2F093C6004E
:10EF20008091C00086FFFCCF8091C00080648093F8
:10EF3000C000CA5DDE4FE880F9800A811B81C6529D
:10EF4000D140BB27A12F902F8F2D0F940DF2CA5DBA
:10EF5000DE4F8881C652D1400F940DF2B0E2FB2EF5
:10EF6000F092C6008091C00086FFFCCF8091C00067
:10EF700080648093C0000DE30093C6008091C000C0
:10EF800086FFFCCF8091C00080648093C00010E2B7
:10EF90001093C6008091C00086FFFCCF8091C00016
:10EFA00080648093C0008BBEF3012791C65DDE4F65
:10EFB0002883CA52D140A22EBB24CC24DD2408943D
:10EFC000611C711C811C911C8BBEF3018791282E42
:10EFD0003324442455240894611C711C811C911C09
:10EFE0008BBEF3013791C55DDE4F3883CB52D140E4
:10EFF0000894611C711C811C911C8BBEF30147910C
:10F00000C45DDE4F4883CC52D140ADEFEA2EAFEF66
:10F01000FA2EAFEF0A2FAFEF1A2F6E0C7F1C801E57
:10F02000911E142D032DF22CEE24EA0CFB1C0C1D5A
:10F030001D1D0F940DF220E22093C6008091C000A8
:10F0400086FFFCCF8091C00080648093C000C65DC5
:10F05000DE4F8881CA52D1400F940DF230E23093D6
:10F06000C6008091C00086FFFCCF8091C000806404
:10F070008093C000C45DDE4F8881CC52D1400F9494
:10F080000DF240E24093C6008091C00086FFFCCFA5
:10F090008091C00080648093C000C55DDE4F888190
:10F0A000CB52D1400F940DF250E25093C6008091A4
:10F0B000C00086FFFCCF8091C00080648093C000B8
:10F0C0008FEFE8168FEFF80680E0080780E018075A
:10F0D00031F484E092EE60E00F94C2F1DFC0D80119
:10F0E000C7018070907CA070B0708050904CA040A0
:10F0F000B040D1F52FEF3FE340E050E0E222F322B1
:10F1000004231523CA5DDE4FA880B980CA80DB8046
:10F11000C652D140AE0CBF1CC01ED11EAA0CBB1CD7
:10F12000CC1CDD1C8EE092EE60E00F94C2F1BB2798
:10F13000A12F902F8F2D0F940DF28E2D0F940DF285
:10F1400030E23093C6008091C00086FFFCCF8091F2
:10F15000C00080648093C0004EE34093C60080915D
:10F16000C00086FFFCCF87C08EE09EEFA0E0B0E03D
:10F17000E822F9220A231B239CE0E91694E9F90608
:10F1800090E0090790E0190709F088C0C45DDE4FE0
:10F19000A881CC52D140EA2EFF2400E010E0102FCD
:10F1A0000F2DFE2CEE24C55DDE4FB881CB52D14031
:10F1B000EB0EF11C011D111DD601C501817090706F
:10F1C000A070B070DC0199278827E80EF91E0A1F8D
:10F1D0001B1F20EF30E040E050E0A222B322C42207
:10F1E000D52241E1AA0CBB1CCC1CDD1C4A95D1F7F1
:10F1F000EA0CFB1C0C1D1D1D81E090E0A0E0B0E0BE
:10F20000282239224A225B2235E1220C331C441C7D
:10F21000551C3A95D1F7E20CF31C041D151D57013E
:10F220006801AA0CBB1CCC1CDD1C85E192EE60E0E1
:10F230000F94C2F1C801AA27BB270F940DF2BB2778
:10F24000A12F902F8F2D0F940DF28E2D0F940DF274
:10F2500090E29093C6008091C00086FFFCCF809121
:10F26000C00080648093C000AEE3A093C60080918C
:10F27000C00086FFFCCF8091C00080648093C000F6
:10F28000C601AA27BB270F940DF2BB27AD2D9C2DDD
:10F290008B2D0F940DF28A2D0F940DF20F94DCF14B
:10F2A000CC5DDE4FE881F981C452D140F99709F471
:10F2B0004DCBF4E0EF2EF12C012D112D6E0C7F1CA7
:10F2C000801E911EF2CD83E093EE62E00F94F5F183
:10F2D0008AE192EE60E00F94C2F18091C00087FF56
:10F2E000FCCF1091C6001F751093C6008091C0001E
:10F2F00086FFFCCF8091C00080648093C0000F9493
:10F30000DCF1812F81548A3108F036C1163409F4BA
:10F3100095C0173490F4133409F44EC0143430F40B
:10F320001134F1F0123409F01DC130C0143409F465
:10F3300059C0153409F016C16BC01A3409F4C4C0A1
:10F340001B3438F4173409F48FC0183409F00AC19B
:10F35000A1C01B3409F4D2C01C3409F003C1E8C0B9
:10F360008FEF81B90DC082B1809582B980E090E0C5
:10F37000E0EDF7E03197F1F70196883C9105C1F790
:10F380008091C00087FFEFCF12B8EFC08FEF84B934
:10F390000DC085B1809585B980E090E0E0EDF7E0A3
:10F3A0003197F1F70196883C9105C1F78091C00033
:10F3B00087FFEFCF15B8D9C08FEF87B90DC088B1DF
:10F3C000809588B980E090E0E0EDF7E03197F1F7C3
:10F3D0000196883C9105C1F78091C00087FFEFCF6F
:10F3E00018B8C3C08FEF8AB90DC08BB180958BB9A7
:10F3F00080E090E0E0EDF7E03197F1F70196883C8E
:10F400009105C1F78091C00087FFEFCF1BB8ADC059
:10F410008FEF8DB90DC08EB180958EB980E090E0F0
:10F42000E0EDF7E03197F1F70196883C9105C1F7DF
:10F430008091C00087FFEFCF1EB897C08FEF80BBD1
:10F440000DC081B3809581BB80E090E0E0EDF7E0F6
:10F450003197F1F70196883C9105C1F78091C00082
:10F4600087FFEFCF11BA81C08FEF83BB0DC084B38C
:10F47000809584BB80E090E0E0EDF7E03197F1F714
:10F480000196883C9105C1F78091C00087FFEFCFBE
:10F4900014BA6BC08FEF809301010FC080910201FD
:10F4A00080958093020180E090E0E0EDF7E03197F5
:10F4B000F1F70196883C9105C1F78091C00087FF64
:10F4C000EDCF1092020151C08FEF809304010FC065
:10F4D0008091050180958093050180E090E0E0ED4A
:10F4E000F7E03197F1F70196883C9105C1F78091DB
:10F4F000C00087FFEDCF1092050137C08FEF8093DA
:10F5000007010FC08091080180958093080180E079
:10F5100090E0E0EDF7E03197F1F70196883C910536
:10F52000C1F78091C00087FFEDCF109208011DC088
:10F530008FEF80930A010FC080910B01809580931B
:10F540000B0180E090E0E0EDF7E03197F1F70196F4
:10F55000883C9105C1F78091C00087FFEDCF1092E4
:10F560000B0103C085E292EEEEC98091C00087FFD7
:10F57000FCCF8091C600EAC988E392EEE4C98CE131
:10F5800091EEE1C988249924933011F1943028F444
:10F59000913089F09230B8F408C0953061F195301F
:10F5A000F0F0963009F048C043C02B3109F042C951
:10F5B00091E06BE13FC96227C15DDE4F2883CF52E6
:10F5C000D14092E037C9B22FA0E0622793E032C960
:10F5D000822F90E0A82BB92B622794E02BC92E3004
:10F5E00009F039C3622795E0C05DDE4F19821882A9
:10F5F000C053D1401FC9E1E0F0E0EC0FFD1FC05D3A
:10F60000DE4F08811981C053D140E00FF11F2083E4
:10F610000F5F1F4FC05DDE4F19830883C053D14079
:10F6200062270A171B0709F005C9D80196E002C92D
:10F63000261709F010C303C0973009F0FBC87724E0
:10F640009981933109F412C19431C8F4963009F4C8
:10F65000D8C0973050F4923009F406C1933009F4C1
:10F660006DC0913009F059C253C0913109F477C08F
:10F67000923108F0BBC0903109F04FC2F5C098310B
:10F6800009F487C0993150F4953109F4EFC09531F0
:10F6900008F4C6C1963109F040C2C2C19A3109F4DA
:10F6A0006CC09A3108F491C09B3109F45BC09D3164
:10F6B00009F033C29D81903359F48F81882311F46E
:10F6C0009EE11CC0813011F091E018C098E916C08D
:10F6D000892F807591F0903539F4E0E0F0E089E011
:10F6E0008093570094910AC0983539F4E3E0F0E034
:10F6F00089E080935700949101C090E01A821B82A8
:10F700008D818C831D829E831F8227E030E009C299
:10F710001A8288E08B8381E48C8386E58D8382E581
:10F720008E8389E48F8383E5888780E589878FE5E9
:10F730008A8782E38B872BE030E0F3C18A818139AD
:10F7400041F0823941F0803911F48FE005C080E04A
:10F7500003C082E001C08AE01A828B8344C0772410
:10F76000739482C08D81882311F48EE12CC0813086
:10F7700011F081E028C088E926C01A82E1E0F0E0BB
:10F7800089E08093570084918B831C8224E030E0D1
:10F79000C8C18B81803589F48C81883039F4E2E0EE
:10F7A000F0E089E08093570084910DC0E0E0F0E044
:10F7B00089E080935700849106C0E3E0F0E089E09F
:10F7C0008093570084911A82DFCF8D81836C99E0FA
:10F7D000E1E0F0E0082E90935700E89507B600FCB2
:10F7E000FDCF1A821B8223E030E09BC180EC8A832C
:10F7F000CE5CDE4F188219821A821B82C253D1401E
:10F800008EC18A8190E0A0E0B0E0582F44273327D2
:10F8100022278B8190E0A0E0B0E0DC0199278827C7
:10F82000282B392B4A2B5B2B8D8190E0A0E0B0E098
:10F83000282B392B4A2B5B2B8C8190E0A0E0B0E089
:10F84000BA2FA92F982F8827282B392B4A2B5B2BCF
:10F85000220F331F441F551FC05EDE4F288339839C
:10F860004A835B83C052D1401A8259C13A81C95C34
:10F87000DE4F3883C753D140CA5CDE4F1882C6536F
:10F88000D1408B81C82EDD24CA5CDE4F488159816E
:10F89000C653D140C42AD52A933109F082C0CE5C28
:10F8A000DE4F88819981AA81BB81C253D1408050AB
:10F8B000904CA340B04030F583E0CE5CDE4FE88052
:10F8C000F9800A811B81C253D140F70100935B008C
:10F8D00080935700E89507B600FCFDCFCE5CDE4F65
:10F8E000088119812A813B81C253D14000501F4FAA
:10F8F0002F4F3F4FCE5CDE4F088319832A833B8313
:10F90000C253D140C05EDE4F488159816A817B81FC
:10F91000C052D140DE011B9631E08C9111962C91A2
:10F9200011971296C75CDE4F2883C953D140C85C3B
:10F93000DE4F1882C853D14090E0C85CDE4FE881AA
:10F94000F981C853D1408E2B9F2B0C01FA01609393
:10F950005B0030935700E89511244E5F5F4F6F4F67
:10F960007F4F0EEFE02E0FEFF02ECE0CDF1CC114F8
:10F97000D10499F685E0C05EDE4F088119812A81A5
:10F980003B81C052D140F80120935B008093570027
:10F99000E89507B600FCFDCF81E180935700E8951C
:10F9A00035C0C05EDE4F88819981AA81BB81C0527B
:10F9B000D140B695A795979587957C018601ABE0D8
:10F9C000AA2EB12CAC0EBD1E0BC0D5016D915D01F0
:10F9D000C7010F947FFE0894E11CF11C01501040F8
:10F9E0000115110591F7A60160E070E0440F551F65
:10F9F000661F771FC05EDE4FE880F9800A811B8199
:10FA0000C052D1404E0D5F1D601F711F1A82C05E33
:10FA1000DE4F488359836A837B83C052D1407FC0C5
:10FA2000FA80C55CDE4FF882CB53D140C65CDE4F16
:10FA30001882CA53D1408B81C82EDD24C65CDE4FAC
:10FA400008811981CA53D140C02AD12A1A828981DA
:10FA5000BE016D5F7F4F843121F59601C05EDE4FA0
:10FA6000E880F9800A811B81C052D1400BBFF701A9
:10FA700087919691DB018C9311969C936E5F7F4FDB
:10FA8000D801C7010296A11DB11DC05EDE4F88835B
:10FA90009983AA83BB83C052D14022503040F1F6F3
:10FAA00036C0C05EDE4F288139814A815B81C052F9
:10FAB000D1400894C108D108760100E010E0089414
:10FAC000C11CD11C0894E11CF11C011D111DE20E8A
:10FAD000F31E041F151F21BDBB27A52F942F832FB5
:10FAE00082BD2F5F3F4F4F4F5F4FF89A80B5DB01CC
:10FAF0008D93BD012E153F054007510761F7C05E8C
:10FB0000DE4F288339834A835B83C052D1409601FC
:10FB10002D5F3F4FFB01108204C080EC8A8322E0FE
:10FB200030E08BE18093C6008091C00086FFFCCF5F
:10FB30008091C00080648093C000C15DDE4FF88179
:10FB4000CF52D140F093C6008091C00086FFFCCF19
:10FB50008091C00080648093C000432F3093C60022
:10FB60008091C00086FFFCCF8091C00080648093AC
:10FB7000C000922F2093C6008091C00086FFFCCF6A
:10FB80008091C00080648093C0008EE08093C600A6
:10FB90008091C00086FFFCCF8091C000806480937C
:10FBA000C00065E1C15DDE4FE880CF52D1406E25D7
:10FBB00069276427FE01319610C090819093C6009A
:10FBC0008091C00086FFFCCF31968091C000806498
:10FBD0008093C0006927215030402115310569F715
:10FBE0006093C6008091C00086FFFCCF8091C0006A
:10FBF00080648093C00085B1805885B9772081F4F6
:10FC0000C15DDE4F0881CF52D1400F5FC15DDE4F35
:10FC10000883CF52D14090E0A0E0B0E00D941AF4F8
:10FC200027982F9880E090E020ED37E0F901319798
:10FC3000F1F7019684369105C9F700008091C00064
:10FC40008D7F8093C00081E180935700E895EE2777
:10FC5000FF270994FFCF90E00D941AF497FB092E2B
:10FC600007260AD077FD04D02ED006D000201AF443
:10FC7000709561957F4F0895F6F7909581959F4F08
:10FC80000895A1E21A2EAA1BBB1BFD010DC0AA1FDD
:10FC9000BB1FEE1FFF1FA217B307E407F50720F0F5
:10FCA000A21BB30BE40BF50B661F771F881F991F70
:10FCB0001A9469F760957095809590959B01AC01B9
:10FCC000BD01CF010895AA1BBB1B51E107C0AA1FAC
:10FCD000BB1FA617B70710F0A61BB70B881F991FED
:10FCE0005A95A9F780959095BC01CD010895F99991
:10FCF000FECF92BD81BDF89A992780B50895262F31
:10FD0000F999FECF1FBA92BD81BD20BD0FB6F89400
:0EFD1000FA9AF99A0FBE01960895F894FFCF63
:040000033000E000E9
:00000001FF