:1000000027C1000077C500004AC500001DC50000DB
:10001000F0C40000C3C4000096C4000069C400001E
:100020003CC4000045C1000043C1000041C10000C4
:100030003FC100003DC100003BC1000039C10000CC
:1000400037C1000035C1000033C1000031C10000DC
:100050002FC100002DC100002BC10000D4C300003F
:1000600027C1000052C3000027C3000021C10000C7
:100070001FC100001DC100001BC1000019C100000C
:1000800017C1000015C1000013C1000011C100001C
:100090000FC100000DC100000BC1000009C100002C
:1000A00007C1000005C1000003C1000001C100003C
:1000B000FFC00000FDC00000FBC00000F9C0000050
:1000C000F7C00000F5C00000F3C00000F1C0000060
:1000D000EFC00000EDC00000EBC00000E9C0000070
:1000E000E7C000007E028102700274027A02B80248
:1000F000850289028F02930297029D02A102A50246
:10010000B802AB02AF02B302C409C909CE09D809CB
:10011000E2095B0AEC09F409FC09060A100A1A0A4A
:10012000290A330A5B0A3D0A470A510A00002100E6
:10013000240027002A002D003000330001010000B8
:10014000040107010A0100002200250028002B00FD
:100150002E003100340002010000050108010B01EE
:10016000000020002300260029002C002F00320070
:100170000001000003010601090105050505070549
:1001800008080808020202020A0A08080404040413
:10019000010101010101010103030303030303033F
:1001A000040707070C0C0C0C0C0C0C0C02020202CE
:1001B00006060606060606060B0B0B0B0B0B0B0BB7
:1001C0000102102020080810204010204080020169
:1001D000020108040201010204081020408080404E
:1001E000201008040201800402018040201008044D
:1001F00002010804020101020408102040800102EB
:1002000004081020408000000A0B02090C0D0E08A3
:1002100007030401000000000000000000000000CF
:1002200000000000000000000000000000000000CE
:10023000000012111000000000000000000000008B
:10024000000000000000000000000000120C080C7C
:1002500011241FBECFEFD1E2DEBFCDBF00E00CBF47
:1002600023E0A2E6B2E001C01D92AA3FB207E1F787
:1002700012E0A0E0B2E0E4E9F3E200E00BBF02C06C
:1002800007900D92A236B107D9F711E0C7E2D1E08D
:1002900000E006C021970109802FFE010E948C0F0B
:1002A000C632D10780E00807A9F766D50C94B911CA
:1002B000A7CE089580E090E00895FC01538D448D11
:1002C000252F30E0842F90E0821B930B541710F001
:1002D000CF96089501970895FC01918D828D98170E
:1002E00061F0828DDF01A80FB11D5D968C91928D1A
:1002F0009F5F9F73928F90E008958FEF9FEF089517
:10030000FC01918D828D981731F0828DE80FF11DDF
:10031000858D90E008958FEF9FEF0895FC01918DFA
:10032000228D892F90E0805C9F4F821B91098F73F3
:10033000992708958AE792E0F1DF21E0892B09F4FB
:1003400020E0822F0895FC01848DDF01A80FB11DEC
:10035000A35ABF4F2C91848D90E001968F739927FB
:10036000848FA689B7892C93A089B1898C918064E8
:100370008C93938D848D981306C00288F389E02DA9
:1003800080818F7D80830895EF92FF920F931F935A
:10039000CF93DF93EC0181E0888F9B8D8C8D981338
:1003A00005C0E889F989808185FD23C0F62E0B8D73
:1003B00010E00F5F1F4F0F731127E02E8C8DE81296
:1003C0000BC00FB607FCFACFE889F989808185FF59
:1003D000F5CFCE01B8DFF2CF8B8DFE01E80FF11D16
:1003E000E35AFF4FF0820B8FEA89FB89808180629C
:1003F00007C0EE89FF896083E889F989808180647C
:10040000808381E090E0DF91CF911F910F91FF9069
:10041000EF900895CF93DF93EC01888D8823C1F08E
:10042000EA89FB89808185FD05C0A889B9898C91FD
:1004300086FD0EC00FB607FCF5CF808185FFF2CF99
:10044000A889B9898C9185FFEDCFCE017CDFE8CFFB
:10045000DF91CF91089580E090E0892B19F06ADF59
:10046000811125C080E090E0892B41F080E090E090
:10047000892B21F00E94000081111CC080E090E0D7
:10048000892B41F080E090E0892B21F00E94000050
:10049000811113C080E090E0892BA1F080E090E012
:1004A000892B81F00E94000081110AC008950E94EA
:1004B0000000D8CF0E940000E1CF0E940000EACFE8
:1004C0000C940000089590E0FC013197E231F105B1
:1004D00008F04EC08827EE58FF4F8F4F0C948C0FBA
:1004E000809180008F7703C0809180008F7D809302
:1004F0008000089580918000877FF9CF84B58F7741
:1005000002C084B58F7D84BD08958091B0008F773F
:1005100003C08091B0008F7D8093B00008958091DA
:1005200090008F7707C0809190008F7D03C08091ED
:100530009000877F8093900008958091A0008F772E
:1005400007C08091A0008F7D03C08091A000877FAD
:100550008093A0000895809120018F7707C080913B
:1005600020018F7D03C080912001877F809320012F
:100570000895CF93DF93282F30E0F901EA5FFD4F14
:100580008491F901E054FE4FD491F901E658FE4FF1
:10059000C491CC2389F0811196DFEC2FF0E0EE0FAF
:1005A000FF1FE05AFE4FA591B491EC91ED2381E03D
:1005B00090E021F480E002C080E090E0DF91CF91F4
:1005C00008951F93CF93DF93282F30E0F901EA5F5E
:1005D000FD4F8491F901E054FE4FD491F901E658A2
:1005E000FE4FC491CC23C1F0162F81116CDFEC2F8C
:1005F000F0E0EE0FFF1FEA5BFE4FA591B4918FB7BD
:10060000F894111105C09C91ED2FE095E92302C0EB
:10061000EC91ED2BEC938FBFDF91CF911F9108955B
:100620000895CF93DF9382E0A4DFEC018091620212
:10063000811118C0C130D105A9F483E09ADF9C0173
:1006400090916C022115310529F4992359F01092EB
:100650006C0208C02130310529F4911103C081E0FA
:1006600080936C02C093620280916C0220E030E0C3
:1006700040E85FE381110BC060916E0270916F02E0
:1006800080917002909171020E948B0E0AC060915D
:100690006E0270916F0280917002909171020E94BF
:1006A0008A0E60936E0270936F0280937002909333
:1006B0007102DF91CF9108951F920F920FB60F92A2
:1006C00011240BB60F922F933F934F935F936F9329
:1006D0007F938F939F93AF93BF93EF93FF938AE79B
:1006E00092E031DEFF91EF91BF91AF919F918F9199
:1006F0007F916F915F914F913F912F910F900BBE22
:100700000F900FBE0F901F9018951F920F920FB66B
:100710000F9211240BB60F922F938F939F93EF9309
:10072000FF93E0918A02F0918B028081E091900228
:10073000F091910282FD12C09081809193028F5FAF
:100740008F7320919402821751F0E0919302F0E0B0
:10075000E658FD4F958F8093930201C08081FF91F1
:10076000EF919F918F912F910F900BBE0F900FBE25
:100770000F901F901895CF93DF9390E0FC01E05409
:10078000FE4F2491FC01E658FE4F8491882361F1CD
:1007900090E0880F991FFC01E45DFE4FC591D49154
:1007A000FC01EA5BFE4FA591B491611109C09FB7AE
:1007B000F8948881209582238883EC912E230BC0A6
:1007C000623061F49FB7F8943881822F809583233B
:1007D0008883EC912E2B2C939FBF06C08FB7F89483
:1007E000E8812E2B28838FBFDF91CF9108952FB7FB
:1007F000F894609168027091690280916A02909108
:100800006B022FBF08951F920F920FB60F92112403
:100810002F933F938F939F93AF93BF9380916802E1
:1008200090916902A0916A02B0916B0230916702C7
:1008300023E0230F2D3720F40196A11DB11D05C023
:1008400026E8230F0296A11DB11D20936702809315
:10085000680290936902A0936A02B0936B02809140
:10086000630290916402A0916502B09166020196C4
:10087000A11DB11D8093630290936402A093650251
:10088000B0936602BF91AF919F918F913F912F914D
:100890000F900FBE0F901F9018951F920F920FB6DA
:1008A0000F9211240BB60F922F933F934F935F93A8
:1008B0006F937F938F939F93AF93BF93EF93FF9328
:1008C000E0910E02F0910F021995FF91EF91BF9107
:1008D000AF919F918F917F916F915F914F913F91D8
:1008E0002F910F900BBE0F900FBE0F901F90189579
:1008F0001F920F920FB60F9211240BB60F922F93E7
:100900003F934F935F936F937F938F939F93AF9397
:10091000BF93EF93FF93E0910C02F0910D021995B4
:10092000FF91EF91BF91AF919F918F917F916F91C7
:100930005F914F913F912F910F900BBE0F900FBE83
:100940000F901F9018951F920F920FB60F921124BF
:100950000BB60F922F933F934F935F936F937F93B9
:100960008F939F93AF93BF93EF93FF93E091020216
:10097000F09103021995FF91EF91BF91AF919F9173
:100980008F917F916F915F914F913F912F910F9038
:100990000BBE0F900FBE0F901F9018951F920F92D5
:1009A0000FB60F9211240BB60F922F933F934F93D4
:1009B0005F936F937F938F939F93AF93BF93EF93C7
:1009C000FF93E0910002F09101021995FF91EF91E0
:1009D000BF91AF919F918F917F916F915F914F9157
:1009E0003F912F910F900BBE0F900FBE0F901F9055
:1009F00018951F920F920FB60F9211240BB60F92FB
:100A00002F933F934F935F936F937F938F939F9316
:100A1000AF93BF93EF93FF93E0910A02F0910B0223
:100A20001995FF91EF91BF91AF919F918F917F9118
:100A30006F915F914F913F912F910F900BBE0F904F
:100A40000FBE0F901F9018951F920F920FB60F9226
:100A500011240BB60F922F933F934F935F936F9395
:100A60007F938F939F93AF93BF93EF93FF93E09107
:100A70000802F09109021995FF91EF91BF91AF9192
:100A80009F918F917F916F915F914F913F912F91A6
:100A90000F900BBE0F900FBE0F901F9018951F92D6
:100AA0000F920FB60F9211240BB60F922F933F9314
:100AB0004F935F936F937F938F939F93AF93BF9366
:100AC000EF93FF93E0910602F09107021995FF91D1
:100AD000EF91BF91AF919F918F917F916F915F91B6
:100AE0004F913F912F910F900BBE0F900FBE0F9023
:100AF0001F9018951F920F920FB60F9211240BB6EC
:100B00000F922F933F934F935F936F937F938F93A6
:100B10009F93AF93BF93EF93FF93E0910402F09103
:100B200005021995FF91EF91BF91AF919F918F9120
:100B30007F916F915F914F913F912F910F900BBEDD
:100B40000F900FBE0F901F901895CF92DF92EF92EB
:100B5000FF920F931F93CF93DF936C017A018B0168
:100B6000C0E0D0E0CE15DF0589F0D8016D918D0190
:100B7000D601ED91FC910190F081E02DC60119950F
:100B8000892B11F47E0102C02196ECCFC701DF91C1
:100B9000CF911F910F91FF90EF90DF90CF9008952C
:100BA0000E94A511EF92FF920F931F93CF93DF93B3
:100BB000EC017B018A0188819981009729F02A81C3
:100BC0003B8124173507F8F4B8016F5F7F4F0E940F
:100BD000C110009759F0998388831B830A832C8165
:100BE0003D81232B81F4FC0110820DC08881998105
:100BF000009711F00E942910198218821D821C8210
:100C00001B821A8207C01D830C83B70188819981DA
:100C10000E94B211CE01DF91CF911F910F91FF90F1
:100C2000EF900895EAE7F2E0A089B18982E08C9321
:100C3000A485B5851C92A685B7858FEC8C93108E04
:100C4000A489B58986E08C93A289B3898C9180614F
:100C50008C93A289B3898C9188608C93A289B38983
:100C60008C9180688C930288F389E02D80818F7D40
:100C7000808308958F929F92AF92BF92CF92DF921E
:100C8000EF92FF926B017C01B2DD4B015C01C60E5D
:100C9000D71EE81EF91EABDD681579058A059B0590
:100CA00028F0C616D706E806F906A8F7FF90EF90D9
:100CB000DF90CF90BF90AF909F908F900895611577
:100CC000710579F0FB0101900020E9F73197AF0140
:100CD000461B570BDC01ED91FC910280F381E02D66
:100CE000199480E090E008954F925F926F927F9206
:100CF000EF92FF920F931F93CF93DF93CDB7DEB7A1
:100D0000A1970FB6F894DEBF0FBECDBF7C01FA01EC
:100D1000CB0119A2223008F42AE08E010F5D1F4F8B
:100D2000422E512C612C712CBF01A3019201D0D70E
:100D3000F901CA01015011096A3014F4605D01C063
:100D4000695CD8016C93232B242B252B69F7B80100
:100D5000C701B5DFA1960FB6F894DEBF0FBECDBFB9
:100D6000DF91CF911F910F91FF90EF907F906F9047
:100D70005F904F900895A3CFCF93DF93CDB7DEB7A9
:100D80002E970FB6F894DEBF0FBECDBF789484B512
:100D9000826084BD84B5816084BD85B5826085BD77
:100DA00085B5816085BD80916E00816080936E0005
:100DB00010928100809181008260809381008091F7
:100DC00081008160809381008091800081608093A8
:100DD00080008091B10084608093B1008091B00068
:100DE00081608093B0008091910082608093910037
:100DF000809191008160809391008091900081604A
:100E0000809390008091A10082608093A1008091E6
:100E1000A10081608093A1008091A00081608093F7
:100E2000A0008091210182608093210180912101A5
:100E30008160809321018091200181608093200155
:100E400080917A00846080937A0080917A00826039
:100E500080937A0080917A00816080937A008091FB
:100E60007A00806880937A001092C10010925B0330
:100E700010925C0310925D0310925E0310921903AE
:100E800010921A0310921B0310921C0368EB7BE074
:100E900080E090E0EFDE8AE792E090935A0380933F
:100EA0005903C0DEA4DC6093190370931A03809386
:100EB0001B0390931C0364E372E0809159039091AB
:100EC0005A0359DF6AE070E080E090E0D3DE81E011
:100ED00080932D03A7DE61E08CE04DDC61E083E0D0
:100EE0004ADC80E090E0A0EAB2E48093AC03909307
:100EF000AD03A093AE03B093AF038091F2038111D1
:100F000046C0E091D603F091D703C080D180E28043
:100F1000F380C092DE03D092DF03E092E003F09210
:100F2000E103E091D403F091D50380819181A28106
:100F3000B3818093E2039093E303A093E403B0931F
:100F4000E5038090EE039090EF03A090F003B09043
:100F5000F103A5019401C701B601DAD718167CF098
:100F60008090EA039090EB03A090EC03B090ED0327
:100F7000A5019401C701B60192D587FF08C08092F0
:100F8000DE039092DF03A092E003B092E10311E050
:100F90001093F2036091E6037091E7038091E803F8
:100FA0009091E90380D59B01AC0160E070E088EC92
:100FB00092E415D76B017C019B01AC016091C803E1
:100FC0007091C9038091CA039091CB03CDD56093F2
:100FD000C8037093C9038093CA039093CB03A701FE
:100FE00096016091CC037091CD038091CE039091D6
:100FF000CF03F5D66093CC037093CD038093CE03DB
:101000009093CF0384E690E0A0E0B0E08093E60305
:101010009093E703A093E803B093E90310936C0265
:1010200060E083E0A8DB81E193E09093010280938C
:10103000000280916A008C7F816080936A00EC9A44
:10104000D6DB672B682B692B39F4D1DB6230710555
:101050008105910508F4FBC0CADB609376027093AA
:101060007702809378029093790200917202109136
:101070007302209174023091750260177107820724
:10108000930740F46093720270937302809374022A
:101090009093750200917202109173022091740274
:1010A000309175026B017C01C01AD10AE20AF30A81
:1010B000970186010A3F11052105310508F4C7C0D3
:1010C000609372027093730280937402909375021E
:1010D00084EF91E0A0E0B0E0809325039093260395
:1010E000A0932703B09328031092290310922A0398
:1010F00010922B0310922C0380911D0390911E03DC
:10110000A0911F03B09120038093210390932203A9
:10111000A0932303B09324036ADB60931D037093B1
:101120001E0380931F039093200361DB60931903D8
:1011300070931A0380931B0390931C0358DB6B017D
:101140007C0166E472E08091590390915A0313DEAA
:101150002AE041E050E060E070E080915903909116
:101160005A03C2DD6DE472E08091590390915A03F5
:1011700002DE2AE0B701A6018091590390915A033B
:10118000B3DD6FE472E08091590390915A03F3DD6F
:1011900080911D0390911E03A0911F03B091200325
:1011A000B701A601481B590B6A0B7B0B2AE0809103
:1011B000590390915A0398DD6FE472E080915903CE
:1011C00090915A03D8DD40911D0350911E03609108
:1011D0001F03709120038091210390912203A0911D
:1011E0002303B0912403481B590B6A0B7B0B2AE0A5
:1011F0008091590390915A0377DD61E572E0809107
:10120000590390915A03B7DDF2DAAB01BC012AE031
:101210008091590390915A0367DD00915903109111
:101220005A0363E572E0C8014ADD63E472E0C80175
:1012300046DD62E070E080E090E01CDDD8DA60938B
:101240001D0370931E0380931F03909320038AE76E
:1012500092E064D8181619060CF04DC08AE792E0A7
:101260003BD8182F80919803181326C010929C0326
:10127000E0919B03F0E0E15AFC4F13866AE572E0CF
:101280008AE693E0DAD3BCD390936403809363033C
:101290006AE572E080E090E0D0D3B2D3909360032F
:1012A00080935F036AE572E080E090E0C6D3A8D344
:1012B000909368038093670380919C03882389F04F
:1012C00080919B03E82FF0E0E15AFC4F138791E0F7
:1012D000980F90939B0320916903921302C080930F
:1012E0009B03809197031813B2CF10929B0391E058
:1012F00090939C03ACCF60915F0370916003072EC5
:10130000000C880B990BD1D36093AC037093AD03A1
:101310008093AE039093AF03C090B003D090B1031D
:10132000E090B203F090B303809163039091640363
:10133000892B19F461E089E016C060E089E041D9A9
:10134000C701B601B4D56B017C018B0161E083E07C
:1013500012DAC114D10411F460E004C00F3F11058A
:1013600021F461E083E02DD9ABC0E9E0F2E08491A3
:1013700090E0FC013197E231F10508F09CC088272C
:10138000EC57FF4F8F4FC8C584B5806884BDC7BC7C
:1013900097C084B5806284BDC8BC92C08091800033
:1013A000806880938000D0928900C092880088C0B5
:1013B00080918000806280938000D0928B00C092E8
:1013C0008A007EC080918000886080938000D092E7
:1013D0008D00C0928C0074C08091B00080688093B2
:1013E000B000C092B3006CC08091B0008062809366
:1013F000B000C092B40064C0809190008068809377
:101400009000D0929900C09298005AC080919000AC
:10141000806280939000D0929B00C0929A0050C04E
:1014200080919000886080939000D0929D00C0923F
:101430009C0046C08091A00080688093A0008091AD
:10144000A0008F7B8093A000D092A900C092A8003A
:1014500037C08091A00080628093A000D092AB0042
:10146000C092AA002DC08091A00088608093A00047
:10147000D092AD00C092AC0023C080912001806862
:1014800080932001D0922901C092280119C0809137
:101490002001806280932001D0922B01C0922A010A
:1014A0000FC080912001886080932001D0922D018F
:1014B000C0922C0105C0003811050CF052CF4CCF62
:1014C0008091670390916803892B11F461E001C05A
:1014D00060E08CE076D8C0906E02D0906F02E09011
:1014E0007002F090710220E030E0A901C701B6015E
:1014F0000FD5181624F0F7FAF094F7F8F094C0928C
:10150000B403D092B503E092B603F092B7033090E3
:10151000F203311002C0312C34C169D96D837E834E
:101520008F8398878091DA039091DB03A091DC038D
:10153000B091DD034D815E816F817885481B590B29
:101540006A0B7B0B8091E6039091E703A091E8037F
:10155000B091E903481759076A077B07E0F2209129
:10156000D4033091D503D901CD90DD90ED90FC905E
:10157000C982DA82EB82FC82E091D803F091D90330
:10158000A70196016081718182819381C3D34B0150
:101590005C012091E2033091E3034091E403509118
:1015A000E503C701B601B6D36B017C012091C803E6
:1015B0003091C9034091CA035091CB03C501B401D6
:1015C000D3D22091DE033091DF034091E0035091AC
:1015D000E103A1D32B013C016093DE037093DF0391
:1015E0008093E0039093E1032090F303211018C04F
:1015F0002091C4033091C5034091C6035091C703A5
:10160000C701B601B1D29B01AC01C301B20182D3C3
:101610006093DE037093DF038093E0039093E10314
:101620004090DE035090DF036090E0037090E10390
:101630001091EE030091EF03B091F003BE87E091AB
:10164000F103ED87212F302F4B2F5E2FC301B20105
:101650005FD418162CF4812F902FAE85BD8517C04E
:101660008091EA039091EB03A091EC03B091ED031C
:1016700089879A87AB87BC879C01AD01C301B20102
:101680000ED287FF0CC089859A85AB85BC85809377
:10169000DE039093DF03A093E003B093E1032220E5
:1016A00071F02091C4033091C5034091C60350915D
:1016B000C703C501B40158D24B015C0103C0812CA2
:1016C000912C54012091CC033091CD034091CE0355
:1016D0005091CF03C701B60147D29B01AC01609185
:1016E000DE037091DF038091E0039091E10312D358
:1016F0009B01AC01C501B4010ED36B017C01212F0C
:10170000302F4E855D8504D41816BCF01091EA0385
:101710000091EB039091EC039E87A091ED03AD87C0
:10172000212F302F492F5A2FB601C701B8D187FD7D
:1017300004C01C2D0D2DEE86FD86E091D603F091A0
:10174000D703812F902FAE85BD8580839183A2839F
:10175000B383C980DA80EB80FC80C092E203D09230
:10176000E303E092E403F092E503CD80DE80EF80B6
:10177000F884C092DA03D092DB03E092DC03F092AB
:10178000DD0330926D02332009F43FC06CE572E056
:101790008AE792E0F0DA60916E0270916F028091B8
:1017A00070029091710283D3CC24DD24C61AD70A2B
:1017B0000D2C000CEE08FF08F7FE14C0E0917A0231
:1017C000F0917B020190F081E02D6DE28AE792E0DA
:1017D000199544275527BA014C195D096E097F09EF
:1017E0002AE003C02AE0B701A6018AE792E07CDA8A
:1017F0006EE572E08AE792E0BEDA10926E02109215
:101800006F0210927002109271020E942B0218CC8B
:101810008091A4039091A5031CD480919D03909185
:101820009E0317C40F931F93CF93DF93EAE7F2E071
:101830001382128288EE93E0A0E0B0E08483958367
:10184000A683B7838AE192E09183808385EC90E060
:101850009587848784EC90E09787868780EC90E07A
:10186000918B808B81EC90E0938B828B82EC90E06B
:10187000958B848B86EC90E0978B868B118E128EE5
:10188000138E148EE7E1F3E016821782108611861C
:10189000128613861486158616861786108A118A74
:1018A000128A138A148A158AC8EBD3E080EB93E07E
:1018B0009F8F8E8F84EB93E09D8F8C8F8CEA93E0CB
:1018C00099A388A31AAE1AAA1BAA1CAA1DAA80E073
:1018D00090E0AFE7B3E48EAB9FABA8AFB9AF84E6BF
:1018E00090E0A0E0B0E08EA79FA7A8ABB9AB198E9F
:1018F000188E81E090E09B8F8A8F8BAF8AE999E9FF
:10190000A9E1BFE388839983AA83BB8340E050E0C9
:1019100060EA70E44C835D836E837F83188619864A
:101920001A861B868C879D87AE87BF8780E090E0F4
:10193000A0E0BFE3888B998BAA8BBB8B1C8A1D8A86
:101940001E8A1F8A0E94F7030EA51FA528A939A980
:10195000DC01CB01801B910BA20BB30B8AA39BA3D1
:10196000ACA3BDA3CFE5D3E080E590E09983888365
:101970008DE28A878CE388AF8EE389AF83E28AAFFA
:1019800084E28BAF1CAE10929C0310929E031092C7
:101990009D031092A00310929F031092A203109235
:1019A000A10340E050E065E472E08DE993E0FAD8ED
:1019B0001092A3031092A5031092A4031092A70300
:1019C0001092A6031092A9031092A80340E050E0E1
:1019D00065E472E084EA93E0E5D861E08CE00E947F
:1019E000BB0361E089E00E94BB031D821C821F8251
:1019F0001E8219861886DF91CF911F910F9108954D
:101A0000FC0188279927E89421912032E9F32930B5
:101A100010F02E30C8F32B3239F02D3231F46894A7
:101A200003C035D0820F911D219120532A30C8F375
:101A30001EF4909581959F4F089544EF53E000C0A8
:101A4000FA01A191B081009719F41097E1F0CD014E
:101A5000DC01CD010D90002011F4C00113C0FB0189
:101A60002191222319F02015D9F7F3CFFB01219101
:101A7000201519F41E92119606C02223C1F70D906D
:101A80000020A1F7D001FA01A193B08308957AE074
:101A9000979F902D879F802D910D1124089540D000
:101AA00008F481E00895E89409C097FB3EF490950E
:101AB0008095709561957F4F8F4F9F4F9923A9F027
:101AC000F92F96E9BB279395F695879577956795B6
:101AD000B795F111F8CFFAF4BB0F11F460FF1BC0FA
:101AE0006F5F7F4F8F4F9F4F16C0882311F096E98D
:101AF00011C0772321F09EE8872F762F05C066233B
:101B000071F096E8862F70E060E02AF09A95660FF3
:101B1000771F881FDAF7880F9695879597F90895AC
:101B2000990F0008550FAA0BE0E8FEEF16161706EE
:101B3000E807F907C0F012161306E407F50798F056
:101B4000621B730B840B950B39F40A2661F0232B6F
:101B5000242B252B21F408950A2609F4A140A695EB
:101B60008FEF811D811D08950BD078C069D028F0BA
:101B70006ED018F0952309F05AC05FC01124A2C09E
:101B80007ED0A0F3959FD1F3950F50E0551F629F33
:101B9000F001729FBB27F00DB11D639FAA27F00DC6
:101BA000B11DAA1F649F6627B00DA11D661F829FED
:101BB0002227B00DA11D621F739FB00DA11D621FD2
:101BC000839FA00D611D221F749F3327A00D611DEF
:101BD000231F849F600D211D822F762F6A2F1124D1
:101BE0009F5750408AF0E1F088234AF0EE0FFF1F24
:101BF000BB1F661F771F881F91505040A9F79E3F5B
:101C0000510570F014C05EC05F3FECF3983EDCF30A
:101C1000869577956795B795F795E7959F5FC1F797
:101C2000FE2B880F911D9695879597F9089597F942
:101C30009F6780E870E060E008959FEF80EC089572
:101C400000240A941616170618060906089500249B
:101C50000A9412161306140605060895092E039415
:101C6000000C11F4882352F0BB0F40F4BF2B11F489
:101C700060FF04C06F5F7F4F8F4F9F4F089557FDE8
:101C80009058440F551F59F05F3F71F04795880FEA
:101C900097FB991F61F09F3F79F087950895121681
:101CA00013061406551FF2CF4695F1DF08C016162D
:101CB00017061806991FF1CF8695710561050894DE
:101CC0000895E894BB2766277727CB0197F90895F5
:101CD000A1E21A2EAA1BBB1BFD010DC0AA1FBB1F30
:101CE000EE1FFF1FA217B307E407F50720F0A21BA2
:101CF000B30BE40BF50B661F771F881F991F1A940F
:101D000069F760957095809590959B01AC01BD0138
:101D1000CF0108955058BB27AA270ED09FCF90DF40
:101D200030F095DF20F031F49F3F11F41EF485CFA1
:101D30000EF4E095E7FB7BCFE92FA1DF80F3BA1724
:101D4000620773078407950718F071F49EF5B9CF01
:101D50000EF4E0950B2EBA2FA02D0B01B9019001C6
:101D60000C01CA01A0011124FF27591B99F0593F0A
:101D700050F4503E68F11A16F040A22F232F342F52
:101D80004427585FF3CF469537952795A795F040A0
:101D90005395C9F77EF41F16BA0B620B730B840BB5
:101DA000BAF09150A1F0FF0FBB1F661F771F881F6D
:101DB000C2F70EC0BA0F621F731F841F48F48795C5
:101DC00077956795B795F7959E3F08F0B3CF9395B4
:101DD000880F08F09927EE0F9795879508950CD0F6
:101DE0003DCF35DF40F02CDF30F021F45F3F19F0BC
:101DF0001ECF511167CF21CF42DF98F39923C9F34A
:101E00005523B1F3951B550BBB27AA276217730700
:101E1000840738F09F5F5F4F220F331F441FAA1FB4
:101E2000A9F333D00E2E3AF0E0E830D09150504074
:101E3000E695001CCAF729D0FE2F27D0660F771F22
:101E4000881FBB1F261737074807AB07B0E809F004
:101E5000BB0B802DBF01FF2793585F4F2AF09E3F99
:101E6000510568F0E4CE2ECF5F3FECF3983EDCF3F3
:101E7000869577956795B795F7959F5FC9F7880F12
:101E8000911D9695879597F90895E1E0660F771F64
:101E9000881FBB1F621773078407BA0720F0621BF5
:101EA000730B840BBA0BEE1F88F7E095089504D0EE
:101EB0006894B11107CF0895EADE88F09F5790F03B
:101EC000B92F9927B751A0F0D1F0660F771F881F5F
:101ED000991F1AF0BA95C9F712C0B13081F0F1DE3E
:101EE000B1E00895EECE672F782F8827B85F39F0DC
:101EF000B93FCCF3869577956795B395D9F73EF4BE
:101F000090958095709561957F4F8F4F9F4F089565
:101F100007DE08F48FEF0895EE0FFF1F881F8BBFB9
:101F20000790F691E02D1994CF93DF9382309105BD
:101F300010F482E090E0E091F803F091F90320E0E2
:101F400030E0C0E0D0E0309711F140815181481776
:101F50005907C0F04817590761F48281938120978F
:101F600019F09B838A832BC09093F9038093F80325
:101F700026C02115310519F04217530718F49A01AC
:101F8000BE01DF01EF010280F381E02DDCCF2115DE
:101F9000310509F1281B390B2430310590F41296D4
:101FA0008D919C9113976115710521F0FB0193832D
:101FB000828304C09093F9038093F803FD01329665
:101FC00044C0FD01E20FF31F819391932250310928
:101FD0002D933C933AC02091F6033091F703232BC5
:101FE00041F420911202309113023093F7032093B1
:101FF000F60320911002309111022115310541F4B0
:102000002DB73EB74091140250911502241B350B99
:10201000E091F603F091F703E217F307A0F42E1B0B
:102020003F0B2817390778F0AC014E5F5F4F24173C
:10203000350748F04E0F5F1F5093F7034093F603A8
:102040008193919302C0E0E0F0E0CF01DF91CF9166
:1020500008950F931F93CF93DF93009709F48CC0DB
:10206000FC013297138212820091F8031091F90358
:102070000115110581F420813181820F931F209178
:10208000F6033091F7032817390779F5F093F70332
:10209000E093F60371C0D80140E050E0AE17BF07EF
:1020A00050F412962D913C911397AD0121153105F5
:1020B00009F1D901F3CF9D01DA01338322836081D5
:1020C0007181860F971F8217930769F4EC012881AD
:1020D0003981260F371F2E5F3F4F318320838A813E
:1020E0009B8193838283452B29F4F093F903E0933A
:1020F000F80342C01396FC93EE931297ED014991B9
:1021000059919E01240F351FE217F30771F4808166
:102110009181840F951F029611969C938E938281D4
:10212000938113969C938E931297E0E0F0E0D80190
:1021300012968D919C911397009719F0F8018C01DC
:10214000F6CF8D919C9198012E5F3F4F820F931F88
:102150002091F6033091F7032817390769F4309777
:1021600029F41092F9031092F80302C0138212822C
:102170001093F7030093F603DF91CF911F910F9116
:1021800008956F927F928F929F92AF92BF92CF925B
:10219000DF92EF92FF920F931F93CF93DF93EC01A7
:1021A000009781F4CB01DF91CF911F910F91FF90A8
:1021B000EF90DF90CF90BF90AF909F908F907F90E7
:1021C0006F90B2CEFC01E60FF71F9C01225031093F
:1021D000E217F30708F4A8C0D9010D911C911197DB
:1021E00006171707A8F00530110508F49BC0C801B1
:1021F00004978617970708F495C002501109061B2B
:10220000170B019311936D937C93CF0122DF8AC04A
:102210005B01A01AB10A4C01800E911EA091F80337
:10222000B091F90340E050E0E12CF12C109709F453
:102230004AC0A815B905D1F56D907C90119763013E
:1022400082E0C80ED11CCA14DB0480F1A3014A1934
:102250005B096A0182E0C80ED11C1296BC901297ED
:102260001396AC91B5E0CB16D10440F0B282A383B3
:1022700051834083D9016D937C930AC00E5F1F4F39
:10228000C301800F911FF90191838083EB2DFA2FF9
:10229000E114F10431F0D7011396FC93EE931297F9
:1022A00041C0F093F903E093F8033CC08D919C91F9
:1022B00011974817590708F4AC017D0112960D904B
:1022C000BC91A02DB3CF8091F6039091F7038815B0
:1022D0009905E1F446175707C8F4809110029091D0
:1022E0001102009741F48DB79EB7409114025091AE
:1022F0001502841B950BE817F907B0F4F093F70368
:10230000E093F603F901718360830CC0CB010CDE0E
:102310007C01009749F0A801BE011BD0CE0199DED7
:10232000C70104C0CE0102C080E090E0DF91CF91F0
:102330001F910F91FF90EF90DF90CF90BF90AF90E3
:102340009F908F907F906F90089581E090E0F89437
:1023500010C0FB01DC0102C001900D9241505040C1
:10236000D8F70895FB01DC0101900D920020E1F700
:10237000089511E0C7E2D1E000E005C0802FFE0122
:10238000CBDD2196011DC832D10780E00807B1F7E7
:04239000F894FFCFEF
:1023940010031003100310031003100310031003A1
:1023A4000000FA03800000000000C401A5055D01DF
:1023B4000A028E016C0180019A99193F0000A04025
:1023C40000000000564D4450565F317C315F564D3D
:1023D4004450560D0A00564D4450455F003A323A77
:1023E400007C005F564D445045002C003C003E0AE2
:0223F4000000E7
:00000001FF
